{
  "contractName": "Library",
  "abi": [
    {
      "anonymous": false,
      "inputs": [
        {
          "indexed": true,
          "internalType": "uint256",
          "name": "bookId",
          "type": "uint256"
        }
      ],
      "name": "DeleteBook",
      "type": "event",
      "stateMutability": "nonpayable"
    },
    {
      "anonymous": false,
      "inputs": [
        {
          "indexed": true,
          "internalType": "uint256",
          "name": "bookId",
          "type": "uint256"
        }
      ],
      "name": "NewBook",
      "type": "event",
      "stateMutability": "nonpayable"
    },
    {
      "anonymous": false,
      "inputs": [
        {
          "indexed": true,
          "internalType": "uint256",
          "name": "bookId",
          "type": "uint256"
        },
        {
          "indexed": true,
          "internalType": "uint256",
          "name": "trackingId",
          "type": "uint256"
        }
      ],
      "name": "NewRental",
      "type": "event",
      "stateMutability": "nonpayable"
    },
    {
      "inputs": [
        {
          "internalType": "string",
          "name": "name",
          "type": "string"
        },
        {
          "internalType": "string",
          "name": "description",
          "type": "string"
        },
        {
          "internalType": "uint256",
          "name": "price",
          "type": "uint256"
        }
      ],
      "name": "addBook",
      "outputs": [
        {
          "internalType": "bool",
          "name": "success",
          "type": "bool"
        }
      ],
      "stateMutability": "nonpayable",
      "type": "function"
    },
    {
      "inputs": [],
      "name": "bookId",
      "outputs": [
        {
          "internalType": "uint256",
          "name": "",
          "type": "uint256"
        }
      ],
      "stateMutability": "view",
      "type": "function"
    },
    {
      "inputs": [
        {
          "internalType": "uint256",
          "name": "",
          "type": "uint256"
        }
      ],
      "name": "books",
      "outputs": [
        {
          "internalType": "string",
          "name": "name",
          "type": "string"
        },
        {
          "internalType": "string",
          "name": "description",
          "type": "string"
        },
        {
          "internalType": "bool",
          "name": "valid",
          "type": "bool"
        },
        {
          "internalType": "uint256",
          "name": "price",
          "type": "uint256"
        },
        {
          "internalType": "address",
          "name": "owner",
          "type": "address"
        },
        {
          "internalType": "uint256",
          "name": "counter",
          "type": "uint256"
        }
      ],
      "stateMutability": "view",
      "type": "function"
    },
    {
      "inputs": [
        {
          "internalType": "uint256",
          "name": "_bookId",
          "type": "uint256"
        },
        {
          "internalType": "uint256",
          "name": "startTime",
          "type": "uint256"
        },
        {
          "internalType": "uint256",
          "name": "endTime",
          "type": "uint256"
        }
      ],
      "name": "borrowBook",
      "outputs": [
        {
          "internalType": "bool",
          "name": "",
          "type": "bool"
        }
      ],
      "stateMutability": "payable",
      "type": "function"
    },
    {
      "inputs": [
        {
          "internalType": "uint256",
          "name": "_bookId",
          "type": "uint256"
        }
      ],
      "name": "deleteBook",
      "outputs": [
        {
          "internalType": "bool",
          "name": "success",
          "type": "bool"
        }
      ],
      "stateMutability": "nonpayable",
      "type": "function"
    },
    {
      "inputs": [],
      "name": "owner",
      "outputs": [
        {
          "internalType": "address",
          "name": "",
          "type": "address"
        }
      ],
      "stateMutability": "view",
      "type": "function"
    },
    {
      "inputs": [],
      "name": "trackingId",
      "outputs": [
        {
          "internalType": "uint256",
          "name": "",
          "type": "uint256"
        }
      ],
      "stateMutability": "view",
      "type": "function"
    },
    {
      "inputs": [
        {
          "internalType": "uint256",
          "name": "",
          "type": "uint256"
        }
      ],
      "name": "trackings",
      "outputs": [
        {
          "internalType": "uint256",
          "name": "bookId",
          "type": "uint256"
        },
        {
          "internalType": "uint256",
          "name": "startTime",
          "type": "uint256"
        },
        {
          "internalType": "uint256",
          "name": "endTime",
          "type": "uint256"
        },
        {
          "internalType": "address",
          "name": "borrower",
          "type": "address"
        }
      ],
      "stateMutability": "view",
      "type": "function"
    }
  ],
  "bytecode": "0x608060405234801561001057600080fd5b50d3801561001d57600080fd5b50d2801561002a57600080fd5b5061003961007d60201b60201c565b6000806101000a81548173ffffffffffffffffffffffffffffffffffffffff021916908373ffffffffffffffffffffffffffffffffffffffff160217905550610085565b600033905090565b61146b806100946000396000f3fe60806040526004361061007b5760003560e01c8063687440461161004e57806368744046146101cd5780638da5cb5b14610229578063b8f79af41461026e578063e912832d1461029e5761007b565b806304266224146100805780632151fb38146100d757806348cbb2fc1461012e5780634e37d7a014610173575b600080fd5b34801561008c57600080fd5b50d3801561009957600080fd5b50d280156100a657600080fd5b506100c160048036038101906100bc9190610ce1565b6102e3565b6040516100ce9190610f3f565b60405180910390f35b3480156100e357600080fd5b50d380156100f057600080fd5b50d280156100fd57600080fd5b5061011860048036038101906101139190610d60565b61045d565b6040516101259190610f3f565b60405180910390f35b34801561013a57600080fd5b50d3801561014757600080fd5b50d2801561015457600080fd5b5061015d6105d0565b60405161016a9190611029565b60405180910390f35b34801561017f57600080fd5b50d3801561018c57600080fd5b50d2801561019957600080fd5b506101b460048036038101906101af9190610d60565b6105d6565b6040516101c49493929190611044565b60405180910390f35b3480156101d957600080fd5b50d380156101e657600080fd5b50d280156101f357600080fd5b5061020e60048036038101906102099190610d60565b610626565b60405161022096959493929190610f5a565b60405180910390f35b34801561023557600080fd5b50d3801561024257600080fd5b50d2801561024f57600080fd5b5061025861079f565b6040516102659190610f24565b60405180910390f35b61028860048036038101906102839190610d89565b6107c3565b6040516102959190610f3f565b60405180910390f35b3480156102aa57600080fd5b50d380156102b757600080fd5b50d280156102c457600080fd5b506102cd610924565b6040516102da9190611029565b60405180910390f35b6000806040518060c0016040528086815260200185815260200160011515815260200184815260200161031461092a565b73ffffffffffffffffffffffffffffffffffffffff168152602001848152509050600b8160a0018181525050806002600060015481526020019081526020016000206000820151816000019080519060200190610372929190610b81565b50602082015181600101908051906020019061038f929190610b81565b5060408201518160020160006101000a81548160ff0219169083151502179055506060820151816003015560808201518160040160006101000a81548173ffffffffffffffffffffffffffffffffffffffff021916908373ffffffffffffffffffffffffffffffffffffffff16021790555060a0820151816005015590505060016000815480929190610421906112d7565b919050557f439b490920bee799f40c0c3792d224bcccb954e074515e7aa6d4227b4e7501bd60405160405180910390a260019150509392505050565b60006002600083815260200190815260200160002060040160009054906101000a900473ffffffffffffffffffffffffffffffffffffffff1673ffffffffffffffffffffffffffffffffffffffff166104b461092a565b73ffffffffffffffffffffffffffffffffffffffff1614806104da57506104d9610932565b5b610519576040517f08c379a000000000000000000000000000000000000000000000000000000000815260040161051090610fe9565b60405180910390fd5b600260008381526020019081526020016000206000808201600061053d9190610c07565b60018201600061054d9190610c07565b6002820160006101000a81549060ff021916905560038201600090556004820160006101000a81549073ffffffffffffffffffffffffffffffffffffffff021916905560058201600090555050817fb8f952227d61c2381000a8a7296a617eb69c1a822b43f983ac2d6766ce7e289760405160405180910390a260019050919050565b60035481565b60046020528060005260406000206000915090508060000154908060010154908060020154908060030160009054906101000a900473ffffffffffffffffffffffffffffffffffffffff16905084565b6002602052806000526040600020600091509050806000018054610649906112a5565b80601f0160208091040260200160405190810160405280929190818152602001828054610675906112a5565b80156106c25780601f10610697576101008083540402835291602001916106c2565b820191906000526020600020905b8154815290600101906020018083116106a557829003601f168201915b5050505050908060010180546106d7906112a5565b80601f0160208091040260200160405190810160405280929190818152602001828054610703906112a5565b80156107505780601f1061072557610100808354040283529160200191610750565b820191906000526020600020905b81548152906001019060200180831161073357829003601f168201915b5050505050908060020160009054906101000a900460ff16908060030154908060040160009054906101000a900473ffffffffffffffffffffffffffffffffffffffff16908060050154905086565b60008054906101000a900473ffffffffffffffffffffffffffffffffffffffff1681565b600080600260008681526020019081526020016000209050600115158160020160009054906101000a900460ff16151514610833576040517f08c379a000000000000000000000000000000000000000000000000000000000815260040161082a90610fc9565b60405180910390fd5b61083d848461098f565b816003015461084c919061118d565b610854610a02565b14610894576040517f08c379a000000000000000000000000000000000000000000000000000000000815260040161088b90611009565b60405180910390fd5b6108c98160040160009054906101000a900473ffffffffffffffffffffffffffffffffffffffff166108c4610a02565b610a0a565b6108d4858585610a55565b600360008154809291906108e7906112d7565b91905055857f629d7c8fe7fba2a110bc96f28bb6482c1a73fd6c84a69c39f55845ddb72a552260405160405180910390a360019150509392505050565b60015481565b600033905090565b600061093c61092a565b73ffffffffffffffffffffffffffffffffffffffff1660008054906101000a900473ffffffffffffffffffffffffffffffffffffffff1673ffffffffffffffffffffffffffffffffffffffff1614905090565b6000806201518084846109a291906111e7565b6109ac9190611320565b14156109d3576201518083836109c291906111e7565b6109cc919061115c565b90506109fc565b60016201518084846109e591906111e7565b6109ef919061115c565b6109f99190611106565b90505b92915050565b600034905090565b8173ffffffffffffffffffffffffffffffffffffffff166108fc829081150290604051600060405180830381858888f19350505050158015610a50573d6000803e3d6000fd5b505050565b6040518060800160405280848152602001838152602001828152602001610a7a61092a565b73ffffffffffffffffffffffffffffffffffffffff1681525060046000600354815260200190815260200160002060008201518160000155602082015181600101556040820151816002015560608201518160030160006101000a81548173ffffffffffffffffffffffffffffffffffffffff021916908373ffffffffffffffffffffffffffffffffffffffff160217905550905050600060026000858152602001908152602001600020905060008160020160006101000a81548160ff021916908315150217905550600081600501541115610b7057806005016000815480929190610b66906112d7565b9190505550610b7b565b600181600501819055505b50505050565b828054610b8d906112a5565b90600052602060002090601f016020900481019282610baf5760008555610bf6565b82601f10610bc857805160ff1916838001178555610bf6565b82800160010185558215610bf6579182015b82811115610bf5578251825591602001919060010190610bda565b5b509050610c039190610c47565b5090565b508054610c13906112a5565b6000825580601f10610c255750610c44565b601f016020900490600052602060002090810190610c439190610c47565b5b50565b5b80821115610c60576000816000905550600101610c48565b5090565b6000610c77610c72846110ba565b611089565b905082815260208101848484011115610c8f57600080fd5b610c9a848285611263565b509392505050565b600082601f830112610cb357600080fd5b8135610cc3848260208601610c64565b91505092915050565b600081359050610cdb8161141e565b92915050565b600080600060608486031215610cf657600080fd5b600084013567ffffffffffffffff811115610d1057600080fd5b610d1c86828701610ca2565b935050602084013567ffffffffffffffff811115610d3957600080fd5b610d4586828701610ca2565b9250506040610d5686828701610ccc565b9150509250925092565b600060208284031215610d7257600080fd5b6000610d8084828501610ccc565b91505092915050565b600080600060608486031215610d9e57600080fd5b6000610dac86828701610ccc565b9350506020610dbd86828701610ccc565b9250506040610dce86828701610ccc565b9150509250925092565b610de18161121b565b82525050565b610df08161122d565b82525050565b6000610e01826110ea565b610e0b81856110f5565b9350610e1b818560208601611272565b610e248161140d565b840191505092915050565b6000610e3c601d836110f5565b91507f54686520626f6f6b2069732063757272656e746c79206f6e206c6f616e0000006000830152602082019050919050565b6000610e7c602b836110f5565b91507f596f7520617265206e6f7420617574686f726973656420746f2064656c65746560008301527f207468697320626f6f6b2e0000000000000000000000000000000000000000006020830152604082019050919050565b6000610ee26014836110f5565b91507f496e636f72726563742066756e642073656e742e0000000000000000000000006000830152602082019050919050565b610f1e81611259565b82525050565b6000602082019050610f396000830184610dd8565b92915050565b6000602082019050610f546000830184610de7565b92915050565b600060c0820190508181036000830152610f748189610df6565b90508181036020830152610f888188610df6565b9050610f976040830187610de7565b610fa46060830186610f15565b610fb16080830185610dd8565b610fbe60a0830184610f15565b979650505050505050565b60006020820190508181036000830152610fe281610e2f565b9050919050565b6000602082019050818103600083015261100281610e6f565b9050919050565b6000602082019050818103600083015261102281610ed5565b9050919050565b600060208201905061103e6000830184610f15565b92915050565b60006080820190506110596000830187610f15565b6110666020830186610f15565b6110736040830185610f15565b6110806060830184610dd8565b95945050505050565b6000604051905081810181811067ffffffffffffffff821117156110b0576110af6113de565b5b8060405250919050565b600067ffffffffffffffff8211156110d5576110d46113de565b5b601f19601f8301169050602081019050919050565b600081519050919050565b600082825260208201905092915050565b600061111182611259565b915061111c83611259565b9250827fffffffffffffffffffffffffffffffffffffffffffffffffffffffffffffffff0382111561115157611150611351565b5b828201905092915050565b600061116782611259565b915061117283611259565b92508261118257611181611380565b5b828204905092915050565b600061119882611259565b91506111a383611259565b9250817fffffffffffffffffffffffffffffffffffffffffffffffffffffffffffffffff04831182151516156111dc576111db611351565b5b828202905092915050565b60006111f282611259565b91506111fd83611259565b9250828210156112105761120f611351565b5b828203905092915050565b600061122682611239565b9050919050565b60008115159050919050565b600073ffffffffffffffffffffffffffffffffffffffff82169050919050565b6000819050919050565b82818337600083830152505050565b60005b83811015611290578082015181840152602081019050611275565b8381111561129f576000848401525b50505050565b600060028204905060018216806112bd57607f821691505b602082108114156112d1576112d06113af565b5b50919050565b60006112e282611259565b91507fffffffffffffffffffffffffffffffffffffffffffffffffffffffffffffffff82141561131557611314611351565b5b600182019050919050565b600061132b82611259565b915061133683611259565b92508261134657611345611380565b5b828206905092915050565b7f4e487b7100000000000000000000000000000000000000000000000000000000600052601160045260246000fd5b7f4e487b7100000000000000000000000000000000000000000000000000000000600052601260045260246000fd5b7f4e487b7100000000000000000000000000000000000000000000000000000000600052602260045260246000fd5b7f4e487b7100000000000000000000000000000000000000000000000000000000600052604160045260246000fd5b6000601f19601f8301169050919050565b61142781611259565b811461143257600080fd5b5056fea264697066735822122010b9acf1c67bd142dfca52b112fcad80a438866f2e2c978aba7e805820c3c16e64736f6c63430008000033",
  "source": "//SPDX-License-Identifier: GPL-3.0\npragma solidity ^0.8.0;\n\nabstract contract Context {\n   function _msgSender() internal view virtual returns (address) {\n       return msg.sender;\n   }\n\n   function _msgData() internal view virtual returns (bytes calldata) {\n       this; // silence state mutability warning without generating bytecode - see https://github.com/ethereum/solidity/issues/2691\n       return msg.data;\n   }\n\n   function _msgValue() internal view virtual returns (uint256 value) {\n       return msg.value;\n   }\n}\n\nabstract contract Owner is Context {\n   address public owner;\n\n   constructor () {\n       owner = _msgSender();\n   }\n\n   /**\n    * @dev Throws if called by any account other than the owner.\n    */\n    modifier onlyOwner() {\n        require(_msgSender() == owner);\n        _;\n    }\n\n    /**\n     * @dev Check if the current caller is the contract owner.\n     */\n     function isOwner() internal view returns(bool) {\n         return owner == _msgSender();\n     }\n}\n\ncontract Library is Owner {\n  \n   struct Book {\n       string name;\n       string description;\n       bool valid; // false if been borrowed\n       uint256 price; // TRX per day\n       address owner; // owner of the book\n       uint256 counter;\n   }\n\n   uint256 public bookId;\n\n   mapping (uint256 => Book) public books;\n\n   struct Tracking {\n       uint256 bookId;\n       uint256 startTime; // start time, in timestamp\n       uint256 endTime; // end time, in timestamp\n       address borrower; // borrower's address\n   }\n\n   uint256 public trackingId;\n\n   mapping(uint256 => Tracking) public trackings;\n\n   /**\n    * @dev Add a Book with predefined `name`, `description` and `price`\n    * to the library.\n    *\n    * Returns a boolean value indicating whether the operation succeeded.\n    *\n    * Emits a {NewBook} event.\n    */\n   function addBook(string memory name, string memory description, uint256 price) public returns (bool success) {\n       Book memory book = Book(name, description, true, price, _msgSender(), price);\n       book.counter = 11;\n       books[bookId] = book;\n\n       emit NewBook(bookId++);\n\n       return true;\n   }\n\n   /**\n    * @dev Borrow a book has `_bookId`. The rental period starts from\n    * `startTime` ends with `endTime`.\n    *\n    * Returns a boolean value indicating whether the operation succeeded.\n    *\n    * Emits a `NewRental` event.\n    */\n   function borrowBook(uint256 _bookId, uint256 startTime, uint256 endTime) public payable returns (bool) {\n       Book storage book = books[_bookId];\n\n       require(book.valid == true, \"The book is currently on loan\");\n\n       require(_msgValue() == book.price * _days(startTime, endTime), \"Incorrect fund sent.\");\n\n       _sendTRX(book.owner, _msgValue());\n\n       _createTracking(_bookId, startTime, endTime);\n\n       emit NewRental(_bookId, trackingId++);\n\n       return true;\n   }\n\n   /**\n    * @dev Delete a book from the library. Only the book's owner or the\n    * library's owner is authorised for this operation.\n    *\n    * Returns a boolean value indicating whether the operation succeeded.\n    *\n    * Emits a `DeleteBook` event.\n    */\n   function deleteBook(uint256 _bookId) public returns(bool success) {\n       require(_msgSender() == books[_bookId].owner || isOwner(),\n               \"You are not authorised to delete this book.\");\n      \n       delete books[_bookId];\n\n       emit DeleteBook(_bookId);\n\n       return true;\n   }\n\n   /**\n    * @dev Calculate the number of days a book is rented out.\n    */\n   function _days(uint256 startTime, uint256 endTime) internal pure returns(uint256) {\n       if ((endTime - startTime) % uint256(86400) == 0) {\n           return (endTime - startTime) / uint256(86400);\n       } else {\n           return (endTime - startTime) / uint256(86400) + uint256(1);\n       }\n   }\n   /**\n    * @dev Send TRX to the book's owner.\n    */\n   function _sendTRX(address receiver, uint256 value) internal {\n       payable(address(uint160(receiver))).transfer(value);\n   }\n\n   /**\n    * @dev Create a new rental tracking.\n    */\n   function _createTracking(uint256 _bookId, uint256 startTime, uint256 endTime) internal {\n         trackings[trackingId] = Tracking(_bookId, startTime, endTime, _msgSender());\n\n         Book storage book = books[_bookId];\n         book.valid = false;\n         if (book.counter > 0) {\n            book.counter++;\n         } else {\n            book.counter = 1;\n         }\n   }\n\n\n\n   /**\n    * @dev Emitted when a new book is added to the library.\n    * Note `bookId` starts from 0.\n    */\n   event NewBook(uint256 indexed bookId);\n\n   /**\n    * @dev Emitted when a new book rental is made.\n    * Note `trackingId` and `bookId` start from 0.\n    */\n   event NewRental(uint256 indexed bookId, uint256 indexed trackingId);\n\n   /**\n    * @dev Emitted when a book is deleted from the library.\n    */\n   event DeleteBook(uint256 indexed bookId);\n\n}",
  "sourcePath": "/Users/chulahn/Documents/GitHub/TRON/contracts/Library.sol",
  "compiler": {
    "name": "solc",
    "version": "0.8.0+commit.7c2e6412.Emscripten.clang"
  },
  "schemaVersion": "2.0.1",
  "updatedAt": "2022-11-13T15:52:23.498Z"
}